{
  "contractName": "ElectionFactory",
  "abi": [
    {
      "anonymous": false,
      "inputs": [
        {
          "indexed": true,
          "internalType": "address",
          "name": "electionAddress",
          "type": "address"
        },
        {
          "indexed": false,
          "internalType": "string",
          "name": "title",
          "type": "string"
        },
        {
          "indexed": false,
          "internalType": "uint256",
          "name": "startTime",
          "type": "uint256"
        },
        {
          "indexed": false,
          "internalType": "uint256",
          "name": "endTime",
          "type": "uint256"
        },
        {
          "indexed": false,
          "internalType": "uint256[]",
          "name": "positionIds",
          "type": "uint256[]"
        }
      ],
      "name": "ElectionCreated",
      "type": "event"
    },
    {
      "inputs": [
        {
          "internalType": "uint256",
          "name": "",
          "type": "uint256"
        }
      ],
      "name": "elections",
      "outputs": [
        {
          "internalType": "address",
          "name": "",
          "type": "address"
        }
      ],
      "stateMutability": "view",
      "type": "function"
    },
    {
      "inputs": [
        {
          "internalType": "string",
          "name": "_title",
          "type": "string"
        },
        {
          "internalType": "uint256",
          "name": "_startTime",
          "type": "uint256"
        },
        {
          "internalType": "uint256",
          "name": "_endTime",
          "type": "uint256"
        },
        {
          "internalType": "uint256[]",
          "name": "_positionIds",
          "type": "uint256[]"
        }
      ],
      "name": "createElection",
      "outputs": [
        {
          "internalType": "address",
          "name": "",
          "type": "address"
        }
      ],
      "stateMutability": "nonpayable",
      "type": "function"
    },
    {
      "inputs": [],
      "name": "getElectionCount",
      "outputs": [
        {
          "internalType": "uint256",
          "name": "",
          "type": "uint256"
        }
      ],
      "stateMutability": "view",
      "type": "function"
    },
    {
      "inputs": [
        {
          "internalType": "uint256",
          "name": "_index",
          "type": "uint256"
        }
      ],
      "name": "getElection",
      "outputs": [
        {
          "internalType": "address",
          "name": "",
          "type": "address"
        }
      ],
      "stateMutability": "view",
      "type": "function"
    },
    {
      "inputs": [],
      "name": "getAllElections",
      "outputs": [
        {
          "internalType": "address[]",
          "name": "",
          "type": "address[]"
        }
      ],
      "stateMutability": "view",
      "type": "function"
    }
  ],
  "bytecode": "0x608060405234801561001057600080fd5b50611f79806100206000396000f3fe60806040523480156200001157600080fd5b50600436106200005e5760003560e01c8063213785a014620000635780635e6fef0114620000795780636cb8941114620000a95780637fd5f26814620000c05780639d71077714620000d9575b600080fd5b6000546040519081526020015b60405180910390f35b620000906200008a366004620002e9565b620000f0565b6040516001600160a01b03909116815260200162000070565b62000090620000ba366004620003d6565b6200011b565b620000ca620001f9565b604051620000709190620004ad565b62000090620000ea366004620002e9565b6200025d565b600081815481106200010157600080fd5b6000918252602090912001546001600160a01b0316905081565b60008085858585336040516200013190620002db565b6200014195949392919062000581565b604051809103906000f0801580156200015e573d6000803e3d6000fd5b50600080546001810182559080527f290decd9548b62a8d60345a988386fc84ba6bc95484008f6362f93160ef3e5630180546001600160a01b0319166001600160a01b03831690811790915560405191925082917fd1bc1271c9ec582d76c707ae81814b84554b937a922afd49e6b302b37e4bddf990620001e7908a908a908a908a90620005d1565b60405180910390a29695505050505050565b606060008054806020026020016040519081016040528092919081815260200182805480156200025357602002820191906000526020600020905b81546001600160a01b0316815260019091019060200180831162000234575b5050505050905090565b600080548210620002aa5760405162461bcd60e51b8152602060048201526013602482015272496e646578206f7574206f6620626f756e647360681b604482015260640160405180910390fd5b60008281548110620002c057620002c062000606565b6000918252602090912001546001600160a01b031692915050565b611927806200061d83390190565b600060208284031215620002fc57600080fd5b5035919050565b634e487b7160e01b600052604160045260246000fd5b604051601f8201601f1916810167ffffffffffffffff8111828210171562000345576200034562000303565b604052919050565b600082601f8301126200035f57600080fd5b8135602067ffffffffffffffff8211156200037e576200037e62000303565b8160051b6200038f82820162000319565b9283528481018201928281019087851115620003aa57600080fd5b83870192505b84831015620003cb57823582529183019190830190620003b0565b979650505050505050565b60008060008060808587031215620003ed57600080fd5b843567ffffffffffffffff808211156200040657600080fd5b818701915087601f8301126200041b57600080fd5b813560208282111562000432576200043262000303565b62000446601f8301601f1916820162000319565b8281528a828487010111156200045b57600080fd5b8282860183830137600092810182019290925290965087013594506040870135935060608701359150808211156200049257600080fd5b50620004a1878288016200034d565b91505092959194509250565b6020808252825182820181905260009190848201906040850190845b81811015620004f05783516001600160a01b031683529284019291840191600101620004c9565b50909695505050505050565b6000815180845260005b81811015620005245760208185018101518683018201520162000506565b506000602082860101526020601f19601f83011685010191505092915050565b600081518084526020808501945080840160005b83811015620005765781518752958201959082019060010162000558565b509495945050505050565b60a0815260006200059660a0830188620004fc565b8660208401528560408401528281036060840152620005b6818662000544565b91505060018060a01b03831660808301529695505050505050565b608081526000620005e66080830187620004fc565b8560208401528460408401528281036060840152620003cb818562000544565b634e487b7160e01b600052603260045260246000fdfe60806040523480156200001157600080fd5b50604051620019273803806200192783398101604081905262000034916200024c565b828410620000925760405162461bcd60e51b815260206004820152602160248201527f456e642074696d65206d7573742062652061667465722073746172742074696d6044820152606560f81b606482015260840160405180910390fd5b6000620000a08682620003de565b50600184905560028390558151620000c0906004906020850190620000f7565b50600380546001600160a81b0319166101006001600160a01b03939093169290920260ff191691909117905550620004aa92505050565b82805482825590600052602060002090810192821562000135579160200282015b828111156200013557825182559160200191906001019062000118565b506200014392915062000147565b5090565b5b8082111562000143576000815560010162000148565b634e487b7160e01b600052604160045260246000fd5b604051601f8201601f191681016001600160401b03811182821017156200019f576200019f6200015e565b604052919050565b600082601f830112620001b957600080fd5b815160206001600160401b03821115620001d757620001d76200015e565b8160051b620001e882820162000174565b92835284810182019282810190878511156200020357600080fd5b83870192505b84831015620002245782518252918301919083019062000209565b979650505050505050565b80516001600160a01b03811681146200024757600080fd5b919050565b600080600080600060a086880312156200026557600080fd5b85516001600160401b03808211156200027d57600080fd5b818801915088601f8301126200029257600080fd5b815181811115620002a757620002a76200015e565b6020620002bd601f8301601f1916820162000174565b8281528b82848701011115620002d257600080fd5b60005b83811015620002f2578581018301518282018401528201620002d5565b50600082848301015280995050808a0151975050506040880151945060608801519150808211156200032357600080fd5b506200033288828901620001a7565b92505062000343608087016200022f565b90509295509295909350565b600181811c908216806200036457607f821691505b6020821081036200038557634e487b7160e01b600052602260045260246000fd5b50919050565b601f821115620003d957600081815260208120601f850160051c81016020861015620003b45750805b601f850160051c820191505b81811015620003d557828155600101620003c0565b5050505b505050565b81516001600160401b03811115620003fa57620003fa6200015e565b62000412816200040b84546200034f565b846200038b565b602080601f8311600181146200044a5760008415620004315750858301515b600019600386901b1c1916600185901b178555620003d5565b600085815260208120601f198616915b828110156200047b578886015182559484019460019091019084016200045a565b50858210156200049a5787850151600019600388901b60f8161c191681555b5050505050600190811b01905550565b61146d80620004ba6000396000f3fe608060405234801561001057600080fd5b50600436106101585760003560e01c80638c421fbc116100c3578063d330715e1161007c578063d330715e146102ed578063db60dbed14610300578063dff0a8801461032b578063e077e05f1461033e578063e7bf42cb14610351578063f851a4401461037157600080fd5b80638c421fbc14610257578063939c5f7a1461026c5780639d261a781461027f578063b1c9fe6e146102ad578063b384abef146102c7578063bddf1ce9146102da57600080fd5b80633af32abf116101155780633af32abf146101e85780634129b2c91461020b578063425458251461021e5780634a79d50c1461023157806378e9792514610246578063816834761461024f57600080fd5b8063112d26a91461015d57806321534a961461018357806326f6a2aa146101965780632b1ab3aa146101a95780633197cbb6146101cc57806333ebd9e9146101d5575b600080fd5b61017061016b366004611054565b6103a1565b6040519081526020015b60405180910390f35b610170610191366004611054565b610419565b6101706101a4366004611076565b61044a565b6101bc6101b7366004611076565b610484565b604051901515815260200161017a565b61017060025481565b6101bc6101e3366004611054565b6104da565b6101bc6101f63660046110ab565b60066020526000908152604090205460ff1681565b610170610219366004611076565b610588565b6101bc61022c3660046110cd565b610685565b6102396106d8565b60405161017a91906110f7565b61017060015481565b600454610170565b61026a610265366004611145565b610766565b005b61017061027a366004611076565b610935565b6101bc61028d3660046110cd565b600760209081526000928352604080842090915290825290205460ff1681565b6003546102ba9060ff1681565b60405161017a919061117c565b61026a6102d5366004611054565b610956565b61026a6102e83660046110ab565b610b2d565b61026a6102fb3660046111ba565b610c11565b61017061030e366004611054565b600860209081526000928352604080842090915290825290205481565b61026a610339366004611054565b610d4a565b61017061034c366004611054565b610f20565b61036461035f366004611076565b610fcd565b60405161017a919061127f565b6003546103899061010090046001600160a01b031681565b6040516001600160a01b03909116815260200161017a565b60006103ac83610484565b6103d15760405162461bcd60e51b81526004016103c8906112c3565b60405180910390fd5b6103db82846104da565b6103f75760405162461bcd60e51b81526004016103c8906112f0565b5060008281526008602090815260408083208484529091529020545b92915050565b6005602052816000526040600020818154811061043557600080fd5b90600052602060002001600091509150505481565b600061045582610484565b6104715760405162461bcd60e51b81526004016103c8906112c3565b5060009081526005602052604090205490565b6000805b6004548110156104d15782600482815481106104a6576104a661133a565b9060005260206000200154036104bf5750600192915050565b806104c981611350565b915050610488565b50600092915050565b60008181526005602090815260408083208054825181850281018501909352808352849383018282801561052d57602002820191906000526020600020905b815481526020019060010190808311610519575b5050505050905060005b815181101561057d57848282815181106105535761055361133a565b60200260200101510361056b57600192505050610413565b8061057581611350565b915050610537565b506000949350505050565b600061059382610484565b6105af5760405162461bcd60e51b81526004016103c8906112c3565b60008281526005602090815260408083208054825181850281018501909352808352919290919083018282801561060557602002820191906000526020600020905b8154815260200190600101908083116105f1575b5050505050905060008060005b835181101561067b57600084828151811061062f5761062f61133a565b6020908102919091018101516000898152600883526040808220838352909352919091205490915083811115610666578093508194505b5050808061067390611350565b915050610612565b5090949350505050565b600061069082610484565b6106ac5760405162461bcd60e51b81526004016103c8906112c3565b506001600160a01b03919091166000908152600760209081526040808320938352929052205460ff1690565b600080546106e590611377565b80601f016020809104026020016040519081016040528092919081815260200182805461071190611377565b801561075e5780601f106107335761010080835404028352916020019161075e565b820191906000526020600020905b81548152906001019060200180831161074157829003601f168201915b505050505081565b60035461010090046001600160a01b031633146107955760405162461bcd60e51b81526004016103c8906113b1565b60035460ff1660028111156107ac576107ac611166565b8160028111156107be576107be611166565b036108035760405162461bcd60e51b8152602060048201526015602482015274416c726561647920696e207468697320706861736560581b60448201526064016103c8565b600181600281111561081757610817611166565b036108d75760005b6004548110156108d557600060056000600484815481106108425761084261133a565b9060005260206000200154815260200190815260200160002080549050116108c35760405162461bcd60e51b815260206004820152602e60248201527f416c6c20706f736974696f6e73206d7573742068617665206174206c6561737460448201526d206f6e652063616e64696461746560901b60648201526084016103c8565b806108cd81611350565b91505061081f565b505b6003805482919060ff191660018360028111156108f6576108f6611166565b02179055507fa6dcc92f45df25789d5639b7a0c97ba1edf3bb1c0b5dd3376fd96a0db87c46428160405161092a919061117c565b60405180910390a150565b6004818154811061094557600080fd5b600091825260209091200154905081565b60018060035460ff16600281111561097057610970611166565b1461098d5760405162461bcd60e51b81526004016103c8906113f2565b3360009081526006602052604090205460ff166109ec5760405162461bcd60e51b815260206004820152601860248201527f566f746572206973206e6f742077686974656c6973746564000000000000000060448201526064016103c8565b6109f583610484565b610a115760405162461bcd60e51b81526004016103c8906112c3565b33600090815260076020908152604080832086845290915290205460ff1615610a8e5760405162461bcd60e51b815260206004820152602960248201527f566f7465722068617320616c726561647920766f74656420666f722074686973604482015268103837b9b4ba34b7b760b91b60648201526084016103c8565b610a9882846104da565b610ab45760405162461bcd60e51b81526004016103c8906112f0565b3360009081526007602090815260408083208684528252808320805460ff19166001179055600882528083208584529091528120805491610af483611350565b90915550506040518290849033907fb4cfecf70861b7b150d8337780d34fb4cbc2114b5fb1fe51a5c5fca1849f727490600090a4505050565b60035461010090046001600160a01b03163314610b5c5760405162461bcd60e51b81526004016103c8906113b1565b6001600160a01b03811660009081526006602052604090205460ff1615610bc55760405162461bcd60e51b815260206004820152601c60248201527f566f74657220697320616c72656164792077686974656c69737465640000000060448201526064016103c8565b6001600160a01b038116600081815260066020526040808220805460ff19166001179055517f5cb979827581f5a2d6accf830511f42bc79705dde54d001643bb14fea7f75d589190a250565b60035461010090046001600160a01b03163314610c405760405162461bcd60e51b81526004016103c8906113b1565b60005b8151811015610d465760066000838381518110610c6257610c6261133a565b6020908102919091018101516001600160a01b031682528101919091526040016000205460ff16610d3457600160066000848481518110610ca557610ca561133a565b60200260200101516001600160a01b03166001600160a01b0316815260200190815260200160002060006101000a81548160ff021916908315150217905550818181518110610cf657610cf661133a565b60200260200101516001600160a01b03167f5cb979827581f5a2d6accf830511f42bc79705dde54d001643bb14fea7f75d5860405160405180910390a25b80610d3e81611350565b915050610c43565b5050565b60035461010090046001600160a01b03163314610d795760405162461bcd60e51b81526004016103c8906113b1565b60008060035460ff166002811115610d9357610d93611166565b14610db05760405162461bcd60e51b81526004016103c8906113f2565b610db982610484565b610dd55760405162461bcd60e51b81526004016103c8906112c3565b600082815260056020908152604080832080548251818502810185019093528083529192909190830182828015610e2b57602002820191906000526020600020905b815481526020019060010190808311610e17575b5050505050905060005b8151811015610ecb5784828281518110610e5157610e5161133a565b602002602001015103610eb95760405162461bcd60e51b815260206004820152602a60248201527f43616e64696461746520616c72656164792065786973747320666f722074686960448201526939903837b9b4ba34b7b760b11b60648201526084016103c8565b80610ec381611350565b915050610e35565b506000838152600560209081526040808320805460018101825590845291832090910186905551859185917fa072a1e90a5e808c6722a8b7c3457a422c2ee51d7b1a53dceb40bcb32586ac709190a350505050565b6000610f2b83610484565b610f475760405162461bcd60e51b81526004016103c8906112c3565b6000838152600560205260409020548210610f9a5760405162461bcd60e51b8152602060048201526013602482015272496e646578206f7574206f6620626f756e647360681b60448201526064016103c8565b6000838152600560205260409020805483908110610fba57610fba61133a565b9060005260206000200154905092915050565b6060610fd882610484565b610ff45760405162461bcd60e51b81526004016103c8906112c3565b6000828152600560209081526040918290208054835181840281018401909452808452909183018282801561104857602002820191906000526020600020905b815481526020019060010190808311611034575b50505050509050919050565b6000806040838503121561106757600080fd5b50508035926020909101359150565b60006020828403121561108857600080fd5b5035919050565b80356001600160a01b03811681146110a657600080fd5b919050565b6000602082840312156110bd57600080fd5b6110c68261108f565b9392505050565b600080604083850312156110e057600080fd5b6110e98361108f565b946020939093013593505050565b600060208083528351808285015260005b8181101561112457858101830151858201604001528201611108565b506000604082860101526040601f19601f8301168501019250505092915050565b60006020828403121561115757600080fd5b8135600381106110c657600080fd5b634e487b7160e01b600052602160045260246000fd5b602081016003831061119e57634e487b7160e01b600052602160045260246000fd5b91905290565b634e487b7160e01b600052604160045260246000fd5b600060208083850312156111cd57600080fd5b823567ffffffffffffffff808211156111e557600080fd5b818501915085601f8301126111f957600080fd5b81358181111561120b5761120b6111a4565b8060051b604051601f19603f83011681018181108582111715611230576112306111a4565b60405291825284820192508381018501918883111561124e57600080fd5b938501935b82851015611273576112648561108f565b84529385019392850192611253565b98975050505050505050565b6020808252825182820181905260009190848201906040850190845b818110156112b75783518352928401929184019160010161129b565b50909695505050505050565b602080825260139082015272125b9d985b1a59081c1bdcda5d1a5bdb881251606a1b604082015260600190565b6020808252602a908201527f43616e646964617465206973206e6f742072756e6e696e6720666f722074686960408201526939903837b9b4ba34b7b760b11b606082015260800190565b634e487b7160e01b600052603260045260246000fd5b60006001820161137057634e487b7160e01b600052601160045260246000fd5b5060010190565b600181811c9082168061138b57607f821691505b6020821081036113ab57634e487b7160e01b600052602260045260246000fd5b50919050565b60208082526021908201527f4f6e6c792061646d696e2063616e2063616c6c20746869732066756e6374696f6040820152603760f91b606082015260800190565b60208082526025908201527f456c656374696f6e206973206e6f7420696e2074686520726571756972656420604082015264706861736560d81b60608201526080019056fea2646970667358221220495d77fab92d284c0e95e511cc0a7c00542feb7ce33177bdf24f83852ec5936c64736f6c63430008110033a26469706673582212205b7ca5d480cfc9ba10cb0e3cc6c90b9fe2a52965da2b94e475beeb43af9929e764736f6c63430008110033",
  "immutableReferences": {},
  "source": "// SPDX-License-Identifier: MIT\npragma solidity ^0.8.0;\n\nimport \"./Election.sol\";\n\n/**\n * @title ElectionFactory\n * @dev Factory contract for deploying new Election contracts\n */\ncontract ElectionFactory {\n    event ElectionCreated(\n        address indexed electionAddress,\n        string title,\n        uint256 startTime,\n        uint256 endTime,\n        uint256[] positionIds\n    );\n    \n    // Array to store all created elections\n    address[] public elections;\n    \n    /**\n     * @dev Create a new election contract and store its address\n     * @param _title Title of the election\n     * @param _startTime Start time of the election as Unix timestamp\n     * @param _endTime End time of the election as Unix timestamp\n     * @param _positionIds Array of position IDs to include in the election\n     * @return The address of the created election contract\n     */\n    function createElection(\n        string memory _title,\n        uint256 _startTime,\n        uint256 _endTime,\n        uint256[] memory _positionIds\n    ) public returns (address) {\n        // Create a new Election contract\n        Election newElection = new Election(\n            _title,\n            _startTime,\n            _endTime,\n            _positionIds,\n            msg.sender\n        );\n        \n        // Store the address of the new election\n        address electionAddress = address(newElection);\n        elections.push(electionAddress);\n        \n        // Emit event\n        emit ElectionCreated(electionAddress, _title, _startTime, _endTime, _positionIds);\n        \n        return electionAddress;\n    }\n    \n    /**\n     * @dev Get the number of elections created\n     * @return The total number of elections\n     */\n    function getElectionCount() public view returns (uint256) {\n        return elections.length;\n    }\n    \n    /**\n     * @dev Get an election address by index\n     * @param _index Index in the elections array\n     * @return The address of the election at the specified index\n     */\n    function getElection(uint256 _index) public view returns (address) {\n        require(_index < elections.length, \"Index out of bounds\");\n        return elections[_index];\n    }\n    \n    /**\n     * @dev Get all election addresses\n     * @return An array of all election addresses\n     */\n    function getAllElections() public view returns (address[] memory) {\n        return elections;\n    }\n}\n",
  "sourcePath": "/home/codester/Desktop/Trustvote/contracts/ElectionFactory.sol",
  "compiler": {
    "name": "solc",
    "version": "0.8.17+commit.8df45f5f.Emscripten.clang"
  },
  "schemaVersion": "3.4.16",
  "updatedAt": "2025-06-22T17:43:23.413Z",
  "devdoc": {
    "details": "Factory contract for deploying new Election contracts",
    "kind": "dev",
    "methods": {
      "createElection(string,uint256,uint256,uint256[])": {
        "details": "Create a new election contract and store its address",
        "params": {
          "_endTime": "End time of the election as Unix timestamp",
          "_positionIds": "Array of position IDs to include in the election",
          "_startTime": "Start time of the election as Unix timestamp",
          "_title": "Title of the election"
        },
        "returns": {
          "_0": "The address of the created election contract"
        }
      },
      "getAllElections()": {
        "details": "Get all election addresses",
        "returns": {
          "_0": "An array of all election addresses"
        }
      },
      "getElection(uint256)": {
        "details": "Get an election address by index",
        "params": {
          "_index": "Index in the elections array"
        },
        "returns": {
          "_0": "The address of the election at the specified index"
        }
      },
      "getElectionCount()": {
        "details": "Get the number of elections created",
        "returns": {
          "_0": "The total number of elections"
        }
      }
    },
    "title": "ElectionFactory",
    "version": 1
  },
  "userdoc": {
    "kind": "user",
    "methods": {},
    "version": 1
  }
}